:020000040800F2
:1000000000500020830300081101000813010008BC
:100010001501000817010008190100080000000080
:10002000000000000000000000000000710C00084B
:100030001B01000800000000C90C0008150D000895
:10004000E1030008E3030008E5030008E7030008F4
:10005000E9030008EB0300081D010008EF03000896
:10006000F10300081F010008F5030008F70300086A
:10007000F9030008FB030008FD030008FF03000864
:100080000104000803040008050400080704000830
:10009000090400080B0400080D04000821010008F1
:1000A00011040008130400081504000817040008D0
:1000B000190400081B0400081D0400081F040008A0
:1000C0002104000823040008250400082704000870
:1000D00029040008250100082D0400082F04000849
:1000E00023010008330400083504000882B00190A1
:1000F000019B1BB1019B013B0193F9E702B07047E3
:10010000012008B500F078FA022000F075FAFEE749
:100110007047FEE7FEE7FEE7FEE77047704770476F
:100120007047704713B500241B4840F225510194D5
:1001300002F0F3FA58B1184802F076FA174B02A908
:1001400001F8050D01AA1868234601F086FF124840
:1001500040F2277102F0E1FA90B1114B01AA186840
:100160000DF1030102F082F802460B4822B19DF81E
:10017000031002F055FA03E040F2277102F0F5F99E
:10018000019B3BB1074B4FF080521A60BFF34F8F7A
:10019000BFF36F8F02B010BD003801408C4E0020BD
:1001A000884E002004ED00E0EFF309800046704720
:1001B00080F309887047EFF308800046704780F3AA
:1001C00008887047EFF31280704780F311887047FA
:1001D000EFF31080704780F310887047EFF31380BF
:1001E000704780F313887047EFF31480704780F3F3
:1001F0001488704700BA704740BA7047C0BA704759
:1002000090FAA0F07047D0E84F0FC0B27047D0E826
:100210005F0F80B2704750E8000F7047C1E8420F8F
:1002200010467047C1E8520F1046704741E8000081
:1002300070470000384B82B01A6842F001021A6021
:100240005968364A0A405A601A6822F0847222F4C9
:1002500080321A601A6822F480221A605A6822F4E6
:10026000FE025A604FF41F029A600022009201922F
:100270001A6842F480321A601A6802F4003201925D
:10028000009A01320092019A1AB9009AB2F5A06F51
:10029000F2D11A6812F4003218BF01220192019AB9
:1002A000012A05D01E4B4FF000629A6002B07047E1
:1002B0001C4A116841F010011160116821F003011E
:1002C0001160116841F0020111605A685A605A6861
:1002D0005A605A6842F480625A605A6822F47C126A
:1002E0005A605A6842F4E8125A601A6842F0807202
:1002F0001A601968084A8901FBD5516821F0030189
:100300005160516841F0020151605A6802F00C02DC
:10031000082AFAD1C6E700BF001002400000FFF82B
:1003200000ED00E000200240114A124B516801F03C
:100330000C01042901D0082901D00F490EE05168B1
:100340005068C1F38341C00301F1020102D5506836
:10035000800301D5094800E007484143196052680D
:10036000C2F303121A4411791A68CA401A6070471E
:10037000001002400000002000127A0000093D0039
:10038000704708B5FFF756FF0B4A0C4B1A600C4A32
:100390000C4B0D498B4204D252F8041F43F8041B46
:1003A000F7E70A4B0A4A934203D2002243F8042B90
:1003B000F8E704F0B7FBFEE70000000808ED00E0F6
:1003C0005C97000800000020F0080020F0080020E2
:1003D000944E0020FEE7FEE7FEE7FEE7FEE7FEE7BD
:1003E000FEE7FEE7FEE7FEE7FEE7FEE7FEE7FEE7E5
:1003F000FEE7FEE7FEE7FEE7FEE7FEE7FEE7FEE7D5
:10040000FEE7FEE7FEE7FEE7FEE7FEE7FEE7FEE7C4
:10041000FEE7FEE7FEE7FEE7FEE7FEE7FEE7FEE7B4
:10042000FEE7FEE7FEE7FEE7FEE7FEE7FEE7FEE7A4
:10043000FEE7FEE7FEE7FEE7FEE7FEE74FF0FF30F0
:100440007047034B0C221A604FF0FF30704700BF1B
:10045000904E0020024B0B221A604FF0FF30704785
:10046000904E00204FF400534B6000207047012055
:100470007047022881BF034B092200201A6098BFF1
:1004800001207047904E0020024B16221A604FF058
:10049000FF307047904E0020024B1F221A604FF031
:1004A000FF307047904E00200020704770B50B4C15
:1004B000064623680BB90A4B23602568FFF77BFECD
:1004C00023683344834289BF064B044A0C224FF011
:1004D000FF308EBF1A601360284670BDF008002000
:1004E000944E0020904E002010B558B90B46581A73
:1004F00090420DDA08480488A406FBD5808803F8EA
:10050000010BF4E7054B09221A604FF0FF3010BDD4
:1005100022EAE27010BD00BF00380140904E00207A
:100520004FF400534B60002070474FF0FF3070478E
:10053000024B02221A604FF0FF307047904E0020AD
:10054000024B0A221A604FF0FF307047904E002095
:10055000012810B503D0022819D10B4612E00B4632
:10056000581A904211DA0D4804886406FBD513F836
:10057000014B8480F4E7094804886406FBD513F82E
:10058000014B8480581A9042F5DB104610BD044B95
:1005900009221A604FF0FF3010BD00BF0038014043
:1005A000904E002008B5012002490422FFF7D0FF39
:1005B000FEE700BF33950008704701F01DB800004A
:1005C00037B50C4D0820012102F0FEFC10234FF43A
:1005D00040748DF807302846032301A98DF80630B2
:1005E000ADF8044002F0FDFA2846214602F061FB16
:1005F00003B030BD000C0140012803D105484FF481
:10060000007104E0022804D102484FF4807102F026
:1006100052BB7047000C0140012803D105484FF43C
:10062000007104E0022804D102484FF4807102F006
:1006300040BB7047000C0140012808B50DD112489D
:100640004FF4007102F02CFB18B10F484FF4007109
:100650000EE00D484FF4007111E0022813D10A4852
:100660004FF4807102F01CFB30B107484FF48071E9
:10067000BDE8084002F01FBB03484FF48071BDE89D
:10068000084002F016BB08BD000C0140022808B566
:1006900008D14FF48071044802F002FBB0FA80F0F8
:1006A000400908BD002008BD000C014007B510201E
:1006B000012102F089FC03234822064801A9ADF874
:1006C00004308DF807208DF8063002F08AFA03B066
:1006D0005DF804FB0010014008B502F0D8FAB0FA4A
:1006E00080F0400908BD00BF70B544F2050088B035
:1006F000012102F069FC2D4C4FF40073ADF800307D
:1007000018238DF803302046032369468DF8023004
:1007100002F067FA4FF480636946ADF80030204676
:10072000042304F540548DF8033002F05AFA02A86D
:1007300001F009FF204602A901F0F5FE4FF416531F
:100740000025049320460C2304A9ADF81A30ADF817
:100750001450ADF81650ADF81850ADF81C5001F01B
:1007600081FE2046012101F0F4FE2046C021012235
:1007700001F014FF25238DF8043001260F2301A872
:100780008DF805308DF806308DF8076003F0ACF871
:1007900020462A4640F2277101F0E7FE204640F24B
:1007A0002551324601F0E1FE08B070BD000801405D
:1007B00013B50B4B02A901F8010D0A22186800239A
:1007C00001F0A9FB0128044607D1064840F2277131
:1007D000224601F0CAFE204600E0002002B010BD13
:1007E000884E00200038014038B504464518AC4218
:1007F00013D00E4B214618680522002301F08BFB15
:10080000012808D00A4840F22771012201F0ADFE0C
:10081000052000F0F1FE0134E9E7054840F22771B8
:10082000BDE83840012201F0A0BE00BF884E002084
:100830000038014008B5054B0022014618681346F0
:1008400001F067FC431E5842584108BD8C4E002001
:1008500010B5012086B0014602F0B6FB4FF400103F
:10086000012102F0BDFB0820012102F0ADFBC023F5
:10087000ADF8043003238DF8063001A91C2311487C
:100880008DF8073002F0ADF90F4B104C02934BF688
:10089000FF73ADF80E300023ADF80C30ADF810301A
:1008A0004FF48043ADF8143020464FF4806302A922
:1008B000ADF8123001F072FF2046012101F0E6FF91
:1008C00006B010BD000C0140801A06000054004024
:1008D00010B5012104460C4801F0FCFF0A480B4901
:1008E00002F0D8F80028F9D06100074801F0FE01B5
:1008F000002202F042F80448054902F0CBF8002833
:10090000F9D0012010BD00BF0054004001000300D9
:10091000820007000148012101F0E8BF00540040B7
:10092000014608B5054802F023F80448044902F0DE
:10093000B1F80028F9D0012008BD00BF00540040E4
:100940008400070070B505460E46144619484FF45A
:10095000003102F0B5F80028F8D11648012101F065
:10096000B9FF1448144902F095F80028F9D069003D
:10097000104801F0FE01012201F0FFFF0D480F4970
:1009800002F088F80028F9D094B10A480C4902F026
:1009900081F80028F8D0074801F0ECFF013CA4B230
:1009A00006F8010B002CEFD10248012101F09EFF57
:1009B000012070BD0054004001000300020003004C
:1009C000400003000120704713B5022201A9232033
:1009D000FFF7B8FF9DF805309DF8044043EA042472
:1009E000FFF798FF204603F029F94FF03332044B0C
:1009F00003F0B4FA03F09AFB80B202B010BD00BF5E
:100A00003333F33F10B504462320FFF761FF204640
:100A1000FFF786FFBDE81040FFF77CBFA0F1100391
:100A2000DBB2132B07D8012202FA03F313F00B1FDA
:100A300001D0FFF7E7BF704710B50446FFF708FF86
:100A40002046BDE81040FFF7E9BF00BF37B500F012
:100A5000C9FC002401900220FFF718FE054618B1DA
:100A60000220FFF7D9FD07E0042C04DD0220FFF788
:100A7000C3FD2C4600E0013401A8C82100F08EFD22
:100A8000E9E737B500F0AEFC002101900322012018
:100A900001F01EFA294C206020B100210A460B46C5
:100AA00001F039FA01200021032201F011FA6060FF
:100AB00020B100210A460B4601F02DFA20681F4D97
:100AC00060B16B6853B100210A460B4601F021FB6F
:100AD000002168680A460B4601F01BFB18480121FB
:100AE000FFF7FAFD01280ED1237A144D0133DBB252
:100AF0000A2B237207D100210B4628680A4601F011
:100B00000AFA00232B720E480221FFF7E5FD0128A7
:100B10000ED1237A094D0133DBB20A2B237207D1A0
:100B200000210B4668680A4601F0F5F900232B7294
:100B300001A8142100F032FDD0E700BFFC0800201E
:100B40000010014013B500F04DFC0190144C2068DA
:100B500008B36368FBB100210A220B4601F0D9FA01
:100B6000012807D1FFF748FD002120680A460B46FF
:100B700001F0D1F9002160680A220B4601F0C9FAA0
:100B8000012808D1FFF748FD054B002158680A46A7
:100B90000B4601F0C0F901A8642100F0FFFCD5E785
:100BA000FC08002013B500F01DFC0121019000227B
:100BB000802001F08DF9134C01212060002280205B
:100BC00001F086F9104B186008B123682BB9012099
:100BD000FFF712FD0220FFF70FFDFFF7F5FE0B49AF
:100BE00002460B4804F0A0F8094804F0C3F8014697
:100BF0000748FFF7F9FD01A84FF4FA7100F0CEFCA9
:100C0000EBE700BF8C4E0020884E0020389500088E
:100C1000604E002000000000000000000000000006
:100C20004FF0BF0383F31188BFF36F8FBFF34F8F74
:100C3000FEE755480068006880F3088862B661B630
:100C4000BFF34F8FBFF36F8F00DF00BF4FF0807394
:100C500040F8043C054B21F0010140F8081C40F825
:100C60000C3C40F8202C4038704700BF210C000895
:100C7000074B19680868B0E8F00F80F30988BFF3E4
:100C80006F8F4FF0000080F311884EF00D0E70470B
:100C9000504D002070474FF0BF0383F31188BFF31E
:100CA0006F8FBFF34F8F024A136801331360704791
:100CB00018000020034A1368013B13600BB983F34B
:100CC0001188704718000020EFF30980BFF36F8F81
:100CD0000F4B1A6820E9F00F10602DE908404FF023
:100CE000BF0080F3118800F0D7FC4FF0000080F3C4
:100CF0001188BDE8084019680868B0E8F00F80F373
:100D00000988BFF36F8F7047AFF30080AFF30080A7
:100D1000504D002008B54FF0BF0383F31188BFF397
:100D20006F8FBFF34F8F00F077FB18B1034B4FF07D
:100D300080521A60002383F3118808BD04ED00E09F
:100D4000034A044B1A60072243F8042C704700BF83
:100D50003F19010014E000E008B5094B1A6842F49D
:100D60007F021A601A6842F07F421A60FFF7E8FFBC
:100D7000044B00221A60FFF75CFFFFF751FF00BF32
:100D800020ED00E01800002008ED00E070B50446FA
:100D900000F01EFB264B986878B944F2F835254AD6
:100DA00003F1140121F00701156342F82C0F81E8CB
:100DB00024000122196058609A602CB1083462073F
:100DC0001CBF24F00704083444F2F632611E91423D
:100DD00029D81B6816495A68A24203D31648834291
:100DE00006D120E018680028F8D019460346F2E73B
:100DF0000D681868121B102A05F1080508600CD947
:100E000019194A605C604C68094A10684668A64235
:100E100001D20246F9E70860116008495B680A6878
:100E2000D21A0A6000E0002500F05AFB284670BD87
:100E300008090020E84C0020144D00201C00002070
:100E400038B50446B8B1A0F1080500F0C1FA54F86D
:100E5000043C094A11684868984201D20A46F9E7F9
:100E600044F8081C1560054A11680B441360BDE87E
:100E7000384000F035BB38BD080900201C000020B8
:100E8000014B1868704700BF1C000020704700BF6E
:100E90004369064A934207D1806A1433984203D0CB
:100EA000B0FA80F040097047002070471C4D0020C8
:100EB000064B9A6A126812B94FF0FF3203E09A6A41
:100EC000D268D2685268DA62704700BF1C4D0020B9
:100ED000F8B5194C0546266B606B0F46043001F0DF
:100EE00065FA234638B9626BA06BD16A01228A4049
:100EF00020EA0202A2636A1C07D137B1596B0E487F
:100F00000431BDE8F84001F02DBAAC195B6BB44276
:100F1000094D5C6006D2E86B696BBDE8F8400431AE
:100F200001F02CBAA86A696B043101F027FAEB6A68
:100F30009C4238BFEC62F8BD1C4D00202DE9F84FF3
:100F400095008146284688461F460B9EFFF71EFFE8
:100F50008246002800F0AB805420FFF717FF0446BC
:100F600090B1C0F830A02A465046A52103F01AFEE1
:100F7000236B043D1D4425F0070A08F1FF3304F1FB
:100F8000330208F10F0805E05046FFF759FF8EE0E5
:100F9000434506D013F8011F02F8011F19780029F4
:100FA000F6D10A9D4FF0000B042D28BF042504F153
:100FB0000408E5626564404684F843B0C4F848B06C
:100FC00001F0CDF9C5F1050504F1180001F0C7F9EC
:100FD000C4F84CB02461A561646284F850B05046F6
:100FE00049463A46FFF732FE206006B13460324D82
:100FF000FFF751FE2B6C05F1440901332B646F6B35
:1010000027BB6C632B6C012B29D109EB070014372C
:1010100001F09AF9642F284EF7D106F1A80A50463C
:1010200006F1BC0701F090F9384601F08DF906F1A0
:10103000140001F089F906F1D00001F085F930467D
:1010400001F082F9C6F828A0F76308E0D5F8E4308B
:101050002BB96B6BDA6AE36A9A4298BF6C63D5F876
:10106000E830E26A0133C5F8E8300126AB6B06FAD6
:1010700002F114200B4300FB02904146AB6301F0E8
:1010800071F9FFF717FED5F8E4306BB10A4B5B6BD3
:10109000DA6AE36A9A4207D2084B4FF080521A602C
:1010A000BFF34F8FBFF36F8F3046BDE8F88F4FF01F
:1010B000FF30BDE8F88F00BF1C4D002004ED00E0BC
:1010C000F8B50446264DFFF7E6FD04B96C6B271D05
:1010D000384601F06BF960B9E06A142303FB005352
:1010E0005B6C1F492BB98A6B0123834022EA0303FF
:1010F0008B63A36A1BB104F1180001F057F9D5F80E
:10110000E830174E0133C5F8E8306B6B9C420AD1CA
:1011100006F1D000394601F025F9D6F8EC3001335C
:10112000C6F8EC300AE0336C206B013B3364FFF708
:1011300087FE2046FFF784FEFFF7BAFEFFF7BAFDF1
:10114000D5F8E4305BB1064B5B6B9C4207D1054B95
:101150004FF080521A60BFF34F8FBFF36F8FF8BD0F
:101160001C4D002004ED00E010B50446FFF793FD90
:101170000CB9034B5C6BE46AFFF79CFD204610BD85
:101180001C4D0020EFF311834FF0BF0282F3118852
:10119000BFF36F8FBFF34F8F08B9034A506B83F3D0
:1011A0001188C06A704700BF1C4D00202DE9F04730
:1011B0000446042928BF04210D46FFF76CFD0CB935
:1011C0002A4B5C6B636CAB424CD09D42274F09D9D4
:1011D0007A6B94420BD07A6BD66AB54234BF002644
:1011E000012605E07E6BA21B5642564100E0002618
:1011F000D4F82C80DFF874904345A36908BFE562FA
:10120000002B6564A4BFC5F10505A561142309F190
:10121000440503FB085362699A421AD104F1040A97
:10122000504601F0C3F840B9D9F83820012303FA39
:1012300008F322EA0303C9F83830E16ABA6B0123E4
:101240008B401420134300FB01505146BB6301F057
:1012500089F83EB1064B4FF080521A60BFF34F8FB2
:10126000BFF36F8FBDE8F047FFF724BD1C4D002092
:1012700004ED00E070B5044660B3174D6B6B984207
:1012800028D0FFF708FD2046FFF702FEF0B1261D2B
:10129000304601F08BF8E16AAA6B01238B401343BF
:1012A000AB63142005F1440300FB0130314601F02B
:1012B00059F86B6BE26ADB6A9A4207D3074B4FF02F
:1012C00080521A60BFF34F8FBFF36F8FBDE870403D
:1012D000FFF7F0BC70BD00BF1C4D002004ED00E026
:1012E0002DE9F0410646EFF311874FF0BF0383F37A
:1012F0001188BFF36F8FBFF34F8FFFF7C9FD28B37E
:10130000154DD5F8F030CBB96B6BF46ADB6A06F19A
:1013100004089C42404634BF0024012401F046F8F2
:10132000F16AAA6B01238B401343AB63142044354D
:1013300000FB0150414601F015F808E005F11400EA
:1013400006F1180101F00EF8002400E0044687F3CE
:1013500011882046BDE8F0811C4D002037B5114CA6
:10136000002504F1F403019300950F480F497822FA
:101370002B46FFF7E3FD012812D14FF0BF0383F3A3
:101380001188BFF36F8FBFF34F8F4FF0FF33E362CE
:10139000C4F8E400256303B0BDE83040FFF7DCBCCF
:1013A00003B030BD1C4D00202D16000848950008E4
:1013B0004FF0BF0383F31188BFF36F8FBFF34F8FDD
:1013C000024B0022C3F8E420FFF764BC1C4D002050
:1013D000034AD2F8F0300133C2F8F030704700BF52
:1013E0001C4D0020014B186B704700BF1C4D0020A6
:1013F000014B186B704700BF1C4D0020014B186C4F
:10140000704700BF1C4D002008B9024B586B3430A8
:10141000704700BF1C4D00202DE9F0412E4CD4F840
:10142000F03053BB266B0136266356B9A36AE26BD4
:10143000A262E363D4F8F8300133C4F8F830FFF760
:1014400037FDE36A00259E420DD3A26A224B126843
:1014500012B94FF0FF3205E09A6AD268D7687A680D
:10146000964211D2DA62636B1422DB6A02FB0343F9
:101470005B6C022B28BF012525E0D4F8FC30002549
:101480000133C4F8FC301EE007F10408404600F0C8
:101490008DFFBB6A1BB107F1180000F087FFF96AE6
:1014A000A26B01238B401343A3630C4B142000FB5E
:1014B0000130414600F056FF636BFA6ADB6A9A42DC
:1014C00028BF0125C1E7D4F80031002B18BF012542
:1014D0002846BDE8F08100BF1C4D0020604D002073
:1014E0002DE9F0412B4CFFF7D6FBD4F8F030013B4F
:1014F000C4F8F030D4F8F0500DB1002444E0236C6F
:10150000002BFAD06369234E0BB3336A0127DD68E1
:1015100005F1040805F1180000F048FF404600F00E
:1015200045FFEA6AB36B07FA02F10B43B363142079
:1015300006F1440300FB0230414600F013FF736BD9
:10154000EA6ADB6A9A4228BFC6F80071DAE70DB191
:10155000FFF7AEFCD4F8FC504DB1FFF75DFF10B1C2
:101560000123C4F80031013DF7D1C4F8FC50D4F890
:101570000031002BC1D0084B4FF080521A60BFF3EE
:101580004F8FBFF36F8F0124FFF794FB2046BDE818
:10159000F08100BF1C4D002004ED00E038B5054689
:1015A0000C46FFF715FF124B2A68186B1119904271
:1015B00002D2914207D201E0914206D3814294BF08
:1015C0000022012202E0002200E0012229601AB17B
:1015D000081A0021FFF77CFCFFF782FF38B9054BA2
:1015E0004FF080521A60BFF34F8FBFF36F8F38BD3B
:1015F0001C4D002004ED00E010B5044640B90A4B34
:101600004FF080521A60BFF34F8FBFF36F8F10BD42
:10161000FFF7DEFE20460021FFF75AFCFFF760FFD0
:101620000028ECD010BD00BF04ED00E008B5184C58
:10163000D4F8EC3003B3FFF7CBFED4F8D050FFF76B
:101640004FFF002DF3D0FFF726FBD4F8DC30DD6828
:10165000281D00F0ABFE236C013B2364D4F8EC3072
:10166000013BC4F8EC30FFF725FB286BFFF7E8FBE4
:101670002846FFF7E5FBDAE7636C012BD7D9054B6A
:101680004FF080521A60BFF34F8FBFF36F8FCEE7DA
:101690001C4D002004ED00E01F4B70B5D3F8F02086
:1016A0001C461AB10122C3F8002170BDC3F8002105
:1016B0005B6B1B6B1A68B2F1A53F0BD15A68B2F194
:1016C000A53F07D19A68B2F1A53F03D1DB68B3F11A
:1016D000A53F04D0606B616B3431FEF711FDA36B45
:1016E000B3FA83F3DBB2C3F11F03142101FB03F64A
:1016F000A219906C094D40683544A84201FB034390
:10170000906408BF406802F1440208BF50609B6CBF
:10171000DB68636370BD00BF1C4D0020684D002076
:1017200070B50446234DFFF7B6FA04B96C6B261D5D
:10173000304600F03BFE60B9E06A142303FB00531F
:101740005B6C1C492BB98A6B0123834022EA03039B
:101750008B63A36A1BB104F1180000F027FE154843
:10176000314600F0FFFDFFF7A5FAD5F8E4302BB1C4
:10177000FFF791FAFFF79CFBFFF79CFA6A6B0D4BA2
:10178000944215D1D3F8E42042B10B4B4FF0805274
:101790001A60BFF34F8FBFF36F8F70BD196C18685D
:1017A000884201D15A6370BDBDE87040FFF774BF35
:1017B00070BD00BF1C4D002004ED00E010B50C46CC
:1017C000054B596B183100F0D9FD2046BDE810409B
:1017D0000121FFF77DBB00BF1C4D002010B5144652
:1017E000074B41F000415A6B9161596B183100F081
:1017F000B9FD2046BDE810400121FFF769BB00BFDD
:101800001C4D0020C36870B5DD68144C05F1180646
:10181000304600F0CBFDD4F8F0307BB92E1D3046B9
:1018200000F0C4FDE96AA26B01238B401343A3635C
:10183000142004F1440300FB013001E004F1140022
:10184000314600F08FFD636BEA6ADB6A9A4283BF20
:10185000024B0120C3F80001002070BD1C4D002088
:10186000F8B5C66841F000410160371D00F09EFDEB
:101870000E4D384600F09AFDF26AAB6B012404FA73
:1018800002F10B43AB63142005F1440300FB02306B
:10189000394600F067FD6B6BF26ADB6A9A4286BFDD
:1018A0002046C5F800410020F8BD00BF1C4D0020B7
:1018B000034BD3F8F8201B6B02604360704700BFF6
:1018C0001C4D002038B50D460446FFF7E4F92B689F
:1018D0000D4A591C106B10D0D2F8F81022689142B2
:1018E000626801D090420AD2811A994207D2121A34
:1018F00013442B602046FFF7DBFF002400E00124A7
:10190000FFF7D8F9204638BD1C4D0020024B0122BC
:10191000C3F80021704700BF1C4D0020014B586BDD
:10192000704700BF1C4D00202DE9F84304460028F5
:101930003ED0204DC36A6A6BD26A934238D2826924
:101940001C4E002AA8BF6A6B06F14407A8BFD26AE2
:101950004FF0140808FB0373A4BFC2F105028261B3
:1019600042699A4221D100F10409484600F01EFD67
:1019700058B9E16A08FB0168D8F844302BB9B26B5A
:1019800001238B4022EA0303B3636B6B0122DB6A02
:10199000A86B9A4002431420E362AA6300FB037021
:1019A0004946BDE8F84300F0DDBC736BDB6AC362F7
:1019B000BDE8F8831C4D002038B5044608B9002066
:1019C00038BD836CC16A426C013B91428364F6D09E
:1019D000002BF4D1051D284600F0E8FC104B58B947
:1019E000E16A142202FB0132526C2AB9986B01227F
:1019F0008A4020EA02029A63626C986BC2F1050188
:101A0000E262A161012404FA02F108439863054BE4
:101A1000142000FB0230294600F0A4FC204638BD0B
:101A20001C4D0020604D0020044B5A6B90695A6B8E
:101A30005B6BDB6AC3F10503936170471C4D0020AB
:101A4000044B5A6B1AB1596B8A6C01328A64586B19
:101A5000704700BF1C4D002070B5174C06460D4660
:101A6000FFF719F9636BDB6C7BB9626B012182F8BC
:101A7000501055B12846FFF72BFA104B4FF080520B
:101A80001A60BFF34F8FBFF36F8FFFF713F9FFF7A4
:101A900002F9626B084BD56C2DB15B6B0EB1002265
:101AA00000E06A1EDA64636B002283F85020FFF7BF
:101AB00001F9284670BD00BF1C4D002004ED00E078
:101AC0002DE9F0411F4C1F4680460E461546FFF794
:101AD000E2F8636B93F85030022B14D0636B012152
:101AE000DA6C22EA0802DA64636B83F8501057B1AB
:101AF0003846FFF7EDF9144B4FF080521A60BFF3F0
:101B00004F8FBFF36F8FFFF7D5F8FFF7C4F815B10C
:101B1000636BDB6C2B60636B002293F85030012BFE
:101B20001DBF084B01255B6B00251EBFD96CB1435F
:101B3000D964636B83F85020FFF7BCF82846BDE8F2
:101B4000F08100BF1C4D002004ED00E0F8B51D46FB
:101B500004460F461646FFF79EF80DB1E36C2B6066
:101B600094F850500223721EEDB284F85030032ACC
:101B70000DD8DFE802F002050B09E16C0F4305E028
:101B8000E36C0133E36402E0022D25D0E764012D0C
:101B900001D0012521E0271D124E384600F006FC39
:101BA000E26AB36B05FA02F10B43B363142006F14A
:101BB000440300FB0230394600F0D4FB736BE26A49
:101BC000DB6A9A42E5D9084B4FF080521A60BFF3A6
:101BD0004F8FBFF36F8F00E00025FFF76BF82846AB
:101BE000F8BD00BF1C4D002004ED00E02DE9F843D6
:101BF000DDF820800446EFF311874FF0BF0080F33B
:101C00001188BFF36F8FBFF34F8F0BB1E06C18607B
:101C100094F850600223013AF6B284F85030032A57
:101C20000DD8DFE802F002050B09E36C194305E06B
:101C3000E36C0133E36402E0022E2FD0E164012E55
:101C400001D001202BE0184DD5F8F03083B904F114
:101C50000409484600F0AAFBE26AAB6B96401E43BB
:101C6000142005F14403AE6300FB0230494603E053
:101C700005F1140004F1180100F074FB6B6BE26ACB
:101C8000DB6A9A42DDD90120B8F1000F02D0C8F812
:101C9000000004E0044BC3F8000100E0002087F3DB
:101CA0001188BDE8F88300BF1C4D00202DE9F843E2
:101CB00004460F46EFF311884FF0BF0383F31188FA
:101CC000BFF36F8FBFF34F8F022390F8506080F8FF
:101CD0005030C36CF6B20133012EC36426D1154DCA
:101CE000D5F8F03083B900F10409484600F05EFBF6
:101CF000E26AAB6B96401E43142005F14403AE63C9
:101D000000FB0230494603E005F1140004F118011C
:101D100000F028FB6B6BE26ADB6A9A4206D901236A
:101D20000FB13B6002E0034AC2F8003188F311882A
:101D3000BDE8F8831C4D002038B5054608B9084BAE
:101D40005D6BFEF7A8FF95F850300024022B04BF0E
:101D500085F850400124FEF7ADFF204638BD00BF96
:101D60001C4D002070B51546026C0446866B32B9D6
:101D700005682DBB4068FFF71FFE656027E065B969
:101D8000806802F0F3F9A268236C13446268A360D0
:101D9000934217D32368A36014E0C06802F0E6F909
:101DA000236CE2685B4221681A448A42E2603EBFCB
:101DB00062689B18E360022D06D13EB1013E03E04C
:101DC000104604E0284602E0002000E030460136DC
:101DD000A66370BD026C10B5034672B1C4681444AA
:101DE000C4604068844228BF1868BDE8104028BF1E
:101DF000D8600846D96802F0B9B910BD38B50446B4
:101E0000FEF749FF94F84550EDB26BB2002B0ADDA6
:101E1000636A43B104F12400FFF7F4FC08B1FFF753
:101E200075FD013DF0E7FF2384F84530FEF742FFE2
:101E3000FEF731FF94F84450EDB26BB2002B0ADD8F
:101E4000236943B104F11000FFF7DCFC08B1FFF790
:101E50005DFD013DF0E7FF2384F84430BDE83840E4
:101E6000FEF728BF38B504460D46FEF714FF206C78
:101E7000E36B22684343D1181B1A13446160E3608B
:101E80000021FF23A163A26084F8443084F8453028
:101E90007DB92369ABB104F11000FFF7B3FC80B149
:101EA0000A4B4FF080521A60BFF34F8FBFF36F8F12
:101EB00007E004F1100000F047FA04F1240000F0FC
:101EC00043FAFEF7F7FE012038BD00BF04ED00E045
:101ED00070B506460D4609B1484300E00846483053
:101EE000FEF754FF044658B10DB9206002E000F13E
:101EF00048030360E663256420460121FFF7B2FF33
:101F0000204670BD10B502220C460021FFF7E0FF0D
:101F100000B1846310BD2DE9FF41044688461E468A
:101F200001920027FEF7B7FEA26BE36B9A4201D342
:101F3000022E17D1204641463246FFF713FF636A4F
:101F40001BB104F12400FFF75DFC38B12E4B4FF0BC
:101F500080521A60BFF34F8FBFF36F8FFEF7AAFE58
:101F600001204DE0019D15B9FEF7A4FE47E017B929
:101F700002A8FFF79DFCFEF79DFEFFF729FAFEF78A
:101F80008AFE94F84430FF2B04BF002384F84430C9
:101F900094F84530FF2B04BF002384F84530FEF74A
:101FA00089FE02A801A9FFF78DFC18BBFEF773FE9E
:101FB000A76BE56BFEF77EFEAF4215D104F1100072
:101FC0000199FFF7FBFB2046FFF718FFFFF788FAA0
:101FD00008B10127A6E70C4B4FF080521A60BFF3FF
:101FE0004F8FBFF36F8FF4E72046FFF707FFFFF730
:101FF00077FAEEE72046FFF701FFFFF771FA0020BE
:1020000004B0BDE8F08100BF04ED00E010B5024669
:1020100000210120FFF75CFF044638B10021416038
:102020000160C1600A460B46FFF775FF204610BDF0
:1020300038B545680446FFF771FC854209D1E1686F
:102040000139E16039B920460A460B46FFF763FFC4
:1020500001E0002038BD012038BDF8B5054617461F
:10206000EFF311864FF0BF0282F31188BFF36F8F39
:10207000BFF34F8F806BEA6B904201D3022B19D1D3
:1020800095F845402846E4B21A46FFF76BFEFF2C50
:102090000AD16B6A63B105F12400FFF7B3FB38B1D5
:1020A00037B10120386006E00134E4B285F84540DC
:1020B000012000E0002086F31188F8BD38B50C46F9
:1020C000EFF311854FF0BF0383F31188BFF36F8FD8
:1020D000BFF34F8F826BC36B9A4216D290F8453094
:1020E0000132DBB2FF2B826309D1436A5BB124303A
:1020F000FFF788FB38B134B10120206006E00133DE
:10210000DBB280F84530012000E0002085F3118823
:1021100038BD2DE9FF4104460F469846019200263E
:10212000FEF7B9FDA56B3DB320463946E668FFF7DB
:1021300051FEB8F1000F0BD12368013DA56313B91F
:10214000FFF77EFC6060236993B104F1100004E0A6
:10215000636AE66063B104F12400FFF753FB38B112
:10216000354B4FF080521A60BFF34F8FBFF36F8F24
:10217000FEF7A0FD01205BE0019D15B9FEF79AFD79
:1021800055E016B902A8FFF793FBFEF793FDFFF7A2
:102190001FF9FEF780FD94F84430FF2B04BF0023A5
:1021A00084F8443094F84530FF2B04BF002384F8B2
:1021B0004530FEF77FFD02A801A9FFF783FB50BB66
:1021C000FEF769FDA56BFEF775FDF5B9236833B918
:1021D000FEF761FD6068FFF7A7FBFEF76BFD04F1FA
:1021E00024000199FFF7EAFA2046FFF707FEFFF700
:1021F00077F908B1012693E70F4B4FF080521A6030
:10220000BFF34F8FBFF36F8FF4E72046FFF7F6FD64
:10221000FFF766F9EEE72046FFF7F0FDFFF760F9FC
:10222000FEF739FDA56BFEF745FD002DE2D12846EE
:1022300004B0BDE8F08100BF04ED00E070B5466871
:1022400004460D46FFF76AFB864204D1E36801208D
:102250000133E36070BD002120462A460B46FFF79C
:1022600058FF10B1E3680133E36070BD2DE9F04120
:1022700007469046EFF311864FF0BF0383F31188B2
:10228000BFF36F8FBFF34F8F846BE4B190F844506E
:10229000FFF7A0FDEDB2601EFF2DB8630DD13B69C5
:1022A0007BB107F11000FFF7ADFA50B1B8F1000FA4
:1022B00007D00120C8F8000006E00135EDB287F82C
:1022C0004450012000E0204686F31188BDE8F081EB
:1022D00070B50446EFF311854FF0BF0383F3118807
:1022E000BFF36F8FBFF34F8F836B2BB1C668FFF7C0
:1022F00071FDE660012000E0184685F3118870BD8D
:1023000010B50446FEF7C7FCA46BFEF7D3FC2046CD
:1023100010BD38B50546FEF7BEFCAC6BEB6B1C1B65
:10232000FEF7C8FC204638BD806B7047FEF788BDBD
:10233000806BB0FA80F040097047826BC06B131A53
:1023400058425841704700BF00F1080343604FF006
:10235000FF32C36003610023826003607047002383
:102360000361704743689A684B608A609A6851605D
:102370009960036808610133036070470A6830B5EB
:10238000531C01D1036907E000F108035C6825686C
:10239000954201D82346F9E75A684A6091608B60FC
:1023A0005960036808610133036030BD4168826889
:1023B00003698A60826851605968814208BF5A6027
:1023C00000220261186801381860704708B5204B78
:1023D00098420BD14FF48040012100F00DFEBDE882
:1023E00008404FF48040002100F006BE194B98428F
:1023F00007D14FF40030012100F00AFE4FF4003005
:102400001FE0154B984207D14FF48020012100F0C6
:10241000FFFD4FF4802014E0104B984207D14FF499
:102420000020012100F0F4FD4FF4002009E00C4BE6
:1024300098420BD14FF48010012100F0E9FD4FF4D8
:1024400080100021BDE8084000F0E2BD08BD00BFDB
:10245000003801400044004000480040004C00406B
:102460000050004070B50E460446038ACA889BB2ED
:1024700023F440531343038282890989B38892B2BB
:102480000B43718922F4B0520B4322F00C02134328
:102490009BB28381838AB2899BB223F4407386B056
:1024A0001343838201A800F041FD039B049D174A5A
:1024B0003168944218BF1D46A38919226A431BB292
:1024C000002BB4BF4D008D00B2FBF5F56426B5FBC3
:1024D000F6F00001010906FB1153A28912B2002A8D
:1024E000ADBF1A01D90032313232B5BFB1FBF6F2BD
:1024F000B2FBF6F302F0070203F00F03B4BF104380
:10250000184380B2208106B070BD00BF0038014082
:102510004FF4165303600C2200238380C380038191
:102520004281838170470B8810B54C88028A23430F
:102530008C88C98892B223430B4322F47062134300
:102540009BB2038210BD0023038043808380C3803D
:102550007047838919B19BB243F4005303E023F41D
:1025600000531B041B0C8381704710B5C1F3421448
:10257000012301F01F01012C03FA01F301D10C30FA
:1025800003E0022C0CBF1030143012B10268134368
:1025900002E0026822EA0303036010BD838A9BB253
:1025A0000AB1194301E023EA010181827047038ADD
:1025B00023F00F031B041B0C0382038A9BB21943F5
:1025C00001827047838923F400631B041B0C838101
:1025D00083899BB2194381817047838919B19BB26A
:1025E00043F0020303E023F002031B041B0C83816E
:1025F0007047038A23F020031B041B0C0382038A09
:102600009BB2194301827047038A19B19BB243F40C
:10261000804303E023F480431B041B0C03827047B8
:10262000C1F30801818070478088C0F308007047BB
:1026300083899BB243F0010383817047038BDBB234
:102640000383038B9BB243EA012101837047038B11
:1026500003F47F430383038B9BB2194301837047C9
:10266000838A19B19BB243F0200303E023F02003D7
:102670001B041B0C83827047838A19B19BB243F001
:10268000100303E023F010031B041B0C838270472C
:10269000838A19B19BB243F0080303E023F00803D7
:1026A0001B041B0C83827047838929B16FEA434363
:1026B0006FEA53439BB201E0C3F30E03838170477B
:1026C000838A19B19BB243F4006303E023F40063EF
:1026D0001B041B0C83827047838A23F004031B04B2
:1026E0001B0C8382838A9BB2194381827047838A41
:1026F00019B19BB243F0020303E023F002031B0471
:102700001B0C838270470388194214BF01200020EC
:102710007047C94389B201807047012310B5C1F3E6
:10272000421401F01F029C4203FA02F201D1838994
:1027300003E0022C0CBF038A838A9BB213400288F9
:1027400092B23BB1090A01238B40134214BF01200E
:10275000002010BD184610BD090A01238B40DB4341
:102760009BB20380704700BF08B50B4B984207D15E
:102770004FF40010012100F04BFC4FF4001006E074
:102780004FF48000012100F043FC4FF48000002151
:10279000BDE8084000F03CBC0054004070B586B075
:1027A0000446868801A80D4600F0C0FB039A2E4817
:1027B00026F03F06B2FBF0F03604360C81B20E4331
:1027C000A6802388294E23F001031B041B0C2380C1
:1027D0002B68B3420AD85B00B2FBF3F301319BB222
:1027E000032B89B298BF0423218423E04BF6FF71A9
:1027F000EE888E421BBF19214B4303EB4303B2FB10
:10280000F3F30BBFB2FBF3F39BB29BB243F48043F1
:10281000C3F30B020AB943F001034FF4967101FBB5
:1028200000F24FF47A7192FBF1F2013292B243F46A
:1028300000432284A383238869899BB243F0010368
:1028400023802388AA8823F4816323F002031B04D6
:102850000A431B0C13439BB223802A89AB89134381
:102860009BB2238106B070BD40420F00A0860100DC
:1028700041F288334BF6FF720360002383800381AB
:1028800043814FF48043C28083817047038819B12C
:102890009BB243F0010303E023F001031B041B0C74
:1028A00003807047838819B19BB243F4006303E04F
:1028B00023F400631B041B0C83807047838819B1C9
:1028C0009BB243F4805303E023F480531B041B0C9E
:1028D00083807047038819B19BB243F4807303E08F
:1028E00023F480731B041B0C03807047038819B109
:1028F0009BB243F4007303E023F400731B041B0C2E
:1029000003807047038819B19BB243F4806303E0EE
:1029100023F480631B041B0C03807047838901F040
:10292000FE019BB223F0FE030B4383817047838932
:1029300019B19BB243F0010303E023F001031B0430
:102940001B0C83817047038819B19BB243F040038D
:1029500003E023F040031B041B0C038070478388B3
:102960009BB20AB1194301E023EA0101818070475B
:1029700001827047008AC0B2704712B141F0010174
:1029800001E001F0FE0189B20182704782B00023AC
:1029900001930190019B19440191019B188880B219
:1029A00002B07047038829B16FEA43436FEA53438B
:1029B0009BB201E0C3F30E03038070470388B1F5B7
:1029C000006F15BF23F400639BB21B0443F4006344
:1029D00018BF1B0C038070470388B1F5005F15BF5B
:1029E00023F400539BB21B0443F4005318BF1B0C89
:1029F00003807047038819B19BB243F4805303E00E
:102A000023F480531B041B0C038070470388B1F52B
:102A1000006F15BF23F400639BB21B0443F40063F3
:102A200018BF1B0C03807047038819B19BB243F099
:102A3000200303E023F020031B041B0C03807047DA
:102A4000008BC0F307207047038819B19BB243F095
:102A5000100303E023F010031B041B0C03807047DA
:102A6000038819B99BB243F0800303E023F080038D
:102A70001B041B0C03807047838BB1F5804F1BBF79
:102A800023F480431B049BB21B0C08BF43F4804318
:102A900083837047838A10B59AB2038B21F07F44F9
:102AA00042EA034304EA0300431A5842584110BD66
:102AB000838A008B9BB243EA004020F07F4070473E
:102AC00082B00023009301930B0F01900093009BB1
:102AD00021F07F4113B1019B143302E0019B090CEB
:102AE00018330193019B1B68194214BF0120002079
:102AF00002B07047C94389B2818270478388808A57
:102B00009BB280B2084006D001F0E06113EA1143A5
:102B100014BF012000207047C94389B281827047E9
:102B200008B5234B984205D10420012100F064FA36
:102B3000042036E01F4B984205D10820012100F007
:102B40005BFA08202DE01C4B984205D11020012192
:102B500000F052FA102024E0184B984205D12020B2
:102B6000012100F049FA20201BE0154B984205D1C5
:102B70004020012100F040FA402012E0114B984221
:102B800005D18020012100F037FA802009E00E4BAA
:102B900098420BD14FF48070012100F02DFA4FF4D0
:102BA00080700021BDE8084000F026BA08BD00BFD3
:102BB00000080140000C01400010014000140140D9
:102BC00000180140001C01400020014008B5012010
:102BD000014600F011FABDE808400120002100F094
:102BE0000BBACA78F0B5D40648BF8C780D8802F0CD
:102BF0000F0348BF234315F0FF0F1DD001680024C9
:102C00000126A64006EA0507B74211D14FEA840E15
:102C10000F2606FA0EF621EA0601282A03FA0EF616
:102C200041EA060101D1476102E0482A08BF076175
:102C30000134082CE4D10160FF2D1FD94168002424
:102C400004F108070126BE4006EA0507B74211D184
:102C50004FEA840E0F2606FA0EF621EA0601282A0C
:102C600003FA0EF641EA060101D1476102E0482A63
:102C700008BF07610134082CE2D14160F0BD4FF676
:102C8000FF730380022383700423C370704783683B
:102C9000194214BF012000207047806880B270473D
:102CA000C368194214BF012000207047C06880B279
:102CB000704701617047416170470AB10161704717
:102CC00041617047C160704741F480338361816125
:102CD0008361836983697047054A136823F07F0322
:102CE0001B041B0C194341EA00101060704700BF21
:102CF00000000140014B1860704700BF1C002042DB
:102D0000002830B5154C00F44015B4BFE369636882
:102D1000B5F5401F82B206D1656823F0706325F0D7
:102D2000706565600EE0C40255BF440D03242401A4
:102D3000C0F303454CBFAC4002FA04F423EA040399
:102D400043F0706319B1410D09018A401343034AEE
:102D50000028B4BFD361536030BD00BF0000014004
:102D600001F0030301F0FC0101F1804101F5803124
:102D700010B59B008C680F229A4024EA02028A60F8
:102D80008A68984002438A6010BD014B1860704702
:102D9000DC0020420D4B1A6842F001021A605968AB
:102DA0000B4A0A405A601A6822F0847222F4803278
:102DB0001A601A6822F480221A605A6822F4FE020D
:102DC0005A604FF41F029A60704700BF0010024023
:102DD0000000FFF80C4BB0F5803F1A6822F48032F7
:102DE0001A601A6822F480221A6003D0B0F5802F8E
:102DF00004D070471A6842F4803202E01A6842F444
:102E0000A0221A60704700BF00100240034A1368F6
:102E100023F0F80343EAC00010607047001002403E
:102E2000014B1860704700BF00004242034A5368DC
:102E300023F47C131943084350607047001002408C
:102E4000014B1860704700BF60004242034A53685C
:102E500023F0030318435060704700BF0010024086
:102E6000024B586800F00C00704700BF0010024091
:102E7000034A536823F0F00318435060704700BFC3
:102E800000100240034A536823F4E0631843506083
:102E9000704700BF00100240034A536823F4605398
:102EA00043EAC0005060704700100240044B1A789B
:102EB00009B1104301E022EA00001870704700BF1A
:102EC00009100240014B1860704700BFD800424211
:102ED000034A536823F4404318435060704700BFCF
:102EE00000100240064B002201281A701A7002D00E
:102EF000042802D070471870704705221A70704776
:102F000020100240014B1860704700BF800442420D
:102F1000024A136A18431062704700BF0010024053
:102F2000014B1860704700BF3C0442421C4A10B578
:102F3000536803F00C03042B01D0082B01D0194B6C
:102F40000EE053685168C3F38343CC0303F10203DB
:102F500002D55168890301D5134900E011494B435B
:102F6000036053681149C3F30313CC5C0368E34067
:102F700043605468C4F302240C5D23FA04F48460B3
:102F80005468C4F3C2240C5DE340C3605268C2F3CA
:102F900081320A44127CB3FBF2F3036110BD00BF1F
:102FA0000010024000127A0000093D0020000020BD
:102FB000044B5A6909B1104301E022EA000058614C
:102FC000704700BF00100240044B9A6909B11043DA
:102FD00001E022EA00009861704700BF0010024043
:102FE000044BDA6909B1104301E022EA0000D8611C
:102FF000704700BF00100240044BDA6809B110436B
:1030000001E022EA0000D860704700BF00100240D3
:10301000044B1A6909B1104301E022EA000018616B
:10302000704700BF00100240014B1860704700BF9E
:1030300040044242014B1860704700BF4C004242BE
:10304000014B1870704700BF071002404209012A67
:10305000074B01D11B6803E0022A0CBF1B6A5B6AA5
:1030600000F01F0023FA00F000F00100704700BFDD
:103070000010024007B5002301933120FFF7E6FF5F
:10308000019B01330193019BB3F5A06F01D0002890
:10309000F3D03120FFF7DAFF003018BF012003B072
:1030A0005DF804FB024A536A43F080735362704731
:1030B00000100240034B9B68184214BF01200020FF
:1030C000704700BF00100240014B1870704700BFEE
:1030D0000A10024008B5154B98420BD14FF48050AE
:1030E0000121FFF789FFBDE808404FF4805000211F
:1030F000FFF782BF0E4B984207D14FF48040012169
:10310000FFF786FF4FF4804009E00A4B98420BD14D
:103110004FF400400121FFF77BFF4FF400400021F6
:10312000BDE80840FFF774BF08BD00BF0030014094
:1031300000380040003C004003884A8810B503F482
:1031400041540B8813438A881343CA8813430A895E
:1031500013434A8913438A891343CA891343234378
:103160009BB20380838B23F400631B041B0C8383BB
:103170000B8A038210BD838BF0B523F47B6323F0AD
:103180000F031B041B0C8383022303848B68868B31
:10319000022B87B005460C46B6B223D08B8801A817
:1031A000002B14BF02270127FFF7C0FEE388019917
:1031B000B3F5007F1CBF7F01B1FBF7F14FF00A02AE
:1031C00008BF090A4A43A368B2FBF3F305330A2296
:1031D0009BB2B3FBF2F303F001021202C3F34F03FD
:1031E00092B200E00022991E89B2FE2924BF00227B
:1031F00002231343E28813439BB22B842388A288C3
:103200001E43638846F4006633431343A289134385
:103210009BB2AB8307B0F0BD002303804380838063
:10322000C380038143818381C38107230382704765
:1032300000230222038043808380C38082608381D5
:103240007047038819B19BB243F0400303E023F0B9
:1032500040031B041B0C03807047838B19B19BB286
:1032600043F4806303E023F480631B041B0C83831B
:103270007047090901238B409BB21AB1828892B230
:10328000134303E0828892B222EA030383807047EB
:1032900083889BB20AB1194301E023EA01018180CE
:1032A000704781817047808980B270474FF6FF6315
:1032B000994203880BBF23F480739BB21B0443F431
:1032C000807308BF1B0C03807047838819B19BB2C1
:1032D00043F0040303E023F004031B041B0C83806E
:1032E0007047038823F400631B041B0C03800388CE
:1032F0009BB219430180704703889BB243F480530B
:1033000003807047038819B19BB243F4005303E074
:1033100023F400531B041B0C03807047012914BFC6
:10332000008B808A80B27047008A80B27047038821
:10333000B1F5804F15BF23F480439BB21B0443F4C7
:10334000804318BF1B0C038070470389194214BFC8
:10335000012000207047C94389B20181704710B530
:1033600084880389012201F00F009BB202FA00F069
:103370001840A4B205D009098A40144214BF0120A4
:10338000002010BD01F00F0101238B40DB439BB2F5
:10339000038170474FF0204318B943F2DB021A60F3
:1033A00003E043F2D20243F82020800000F12040E5
:1033B0006FF070434360C0F80431704710280CBFB1
:1033C000054B064B4022182119605A604FF0FC3221
:1033D0009A60DA60704700BF600000A0800000A023
:1033E000054B18221A6000225A604FF0FC329A6096
:1033F000DA601A61704700BFA00000A081684368CE
:1034000030B541EA0302C368C46A1A430369082954
:1034100042EA03024369416B42EA030283698D6910
:1034200042EA0302C36942EA0302036A42EA030270
:10343000436A42EA0302836A43EA0203026B43EAF5
:10344000040343EA020302684FEA820202F12042C7
:10345000136002BF136843F0400313600B68B4F5B8
:10346000804F43EA05034D6843EA05138D6843EA3C
:103470000523CD6843EA05430D69496943EA0553CD
:1034800043EA0163536010D1816B88690B68034381
:10349000486843EA0013886843EA002308694969D9
:1034A00043EA005343EA016301E06FF07043C2F85E
:1034B000043130BD4268836830B51343C26843F0BD
:1034C00008031A430369C46913434269616843EA04
:1034D00042238269056A43EA4233A2680068120403
:1034E00042EA01222168102842EA0102E168AC6840
:1034F00042EA01616A684FEA044444EA02242A6805
:1035000008BF064842EA0402EC6818BF044842EAD1
:10351000046203608160C26030BD00BF600000A033
:10352000800000A00368426843F0100343EA42238E
:103530008268154910B543EA4233C4680B60A2683B
:103540006368120442EA032223681343E2680469B1
:1035500043EA02638B60A2686368120442EA0322B2
:10356000236840691343E26843EA0263CB608268E0
:103570004368120442EA032203681343C26843EA21
:1035800002630B6110BD00BFA00000A0022210B5B5
:1035900042604FF480524262416B4FF400528262AB
:1035A00000230F22FF2403608360C3600361436133
:1035B0008361C3610362C36203630A604A608C6013
:1035C000CA600A614A618B61816B0A604A608C60E3
:1035D000CA600A614A618B6110BD10230360C26931
:1035E000002343608360C360036143618361FC2304
:1035F000136053609360D360026A136053609360FA
:10360000D3607047C2680023036043608360FC237B
:10361000136053609360D3600269136053609360DA
:10362000D3604269136053609360D3607047800039
:1036300000F1204019B1036843F0010302E0026881
:10364000014B134003607047FEFF0F0039B1102893
:103650000CBF074A074A136843F0040306E010282A
:103660000CBF034A034A044B11680B4013607047B8
:10367000600000A0800000A0FBFF0F00054B18B108
:103680001A6842F0040202E01968034A0A401A600C
:10369000704700BFA00000A0FBFF0F0039B1102849
:1036A0000CBF074A074A136843F0400306E010289E
:1036B0000CBF034A034A044B11680B401360704768
:1036C000600000A0800000A0BFFF0F0010280CBF0A
:1036D000014B024B58697047600000A0800000A0B9
:1036E0005AB1102801D10C4A04E0B0F5807F0CBF1C
:1036F0000A4A0B4A536819430CE010286FEA01018B
:1037000001D1054A04E0B0F5807F0CBF034A044AAA
:103710005368194051607047600000A0800000A00D
:10372000A00000A0102801D1064B04E0B0F5807F76
:103730000CBF054B054B5B680B4214BF01200020FA
:10374000704700BF600000A0800000A0A00000A0A3
:1037500010286FEA010101D1054A04E0B0F5807F2D
:103760000CBF044A044A536819405160704700BFB7
:10377000600000A0800000A0A00000A0102801D1DF
:10378000084B04E0B0F5807F0CBF074B074B5B682C
:1037900013EA010004D013EAD10314BF0120002072
:1037A000704700BF600000A0800000A0A00000A043
:1037B00010284FEAD10101D1054A04E0B0F5807F1D
:1037C0000CBF044A044A536823EA01015160704760
:1037D000600000A0800000A0A00000A0044B002218
:1037E0001A605A609A60DA60024A5A61704700BFF4
:1037F00000040140FFFF0F00827970B50168037972
:10380000002A29D0CE43194A03F18043156803F5F5
:103810008233354015605468344054601C6821433D
:10382000196003689468DD432C409460D168294096
:10383000D1604179102909BF916801F18042194393
:10384000916015BF02F58232D16811680B4316BF33
:103850000B43D360136070BD03F1804303F58233E3
:103860001A6822EA0101196070BD00BF000401401E
:1038700000230C2203600371427183717047024A76
:10388000136918431061704700040140034B5B69E2
:10389000184214BF01200020704700BF00040140FF
:1038A000014B5861704700BF00040140054B1A6886
:1038B0005B69034004D0104214BF01200020704710
:1038C0001846704700040140014B5861704700BF23
:1038D0000004014040F0BF60024B40F40030D8606B
:1038E000704700BF00ED00E0C27810B503780AB35E
:1038F000164A03F16043D4684278E443C4F30224D7
:10390000C4F1040102FA01F10F22E240847803F5C8
:10391000614322400A431201D2B283F800230378A4
:103920000122590903F01F0302FA03F3084A42F87F
:10393000213010BD5A09012103F01F03994002F103
:103940002003034A42F8231010BD00BF00ED00E041
:1039500000E100E021F0604121F07F01014B0843CC
:103960009860704700ED00E0044B1A6909B11043FC
:1039700001E022EA00001861704700BF00ED00E09E
:10398000044B04281A680CBF42F0040222F004021F
:103990001A60704710E000E081F0004102E000BFD3
:1039A00083F0004330B54FEA41044FEA430594EAFF
:1039B000050F08BF90EA020F1FBF54EA000C55EA3A
:1039C000020C7FEA645C7FEA655C00F0E2804FEA0B
:1039D0005454D4EB5555B8BF6D420CDD2C4480EAED
:1039E000020281EA030382EA000083EA010180EA1D
:1039F000020281EA0303362D88BF30BD11F0004F6B
:103A00004FEA01314FF4801C4CEA113102D04042A0
:103A100061EB410113F0004F4FEA03334CEA1333DB
:103A200002D0524263EB430394EA050F00F0A780F3
:103A3000A4F10104D5F1200E0DDB02FA0EFC22FAEE
:103A400005F2801841F1000103FA0EF2801843FAE2
:103A500005F359410EE0A5F120050EF1200E012AD3
:103A600003FA0EFC28BF4CF0020C43FA05F3C01811
:103A700051EBE37101F0004507D54FF0000EDCF18A
:103A8000000C7EEB00006EEB0101B1F5801F1BD333
:103A9000B1F5001F0CD349085FEA30004FEA3C0C37
:103AA00004F101044FEA445212F5800F80F09A802D
:103AB000BCF1004F08BF5FEA500C50F1000041EB31
:103AC000045141EA050130BD5FEA4C0C404141EB35
:103AD000010111F4801FA4F10104E9D191F0000F5C
:103AE00004BF01460020B1FA81F308BF2033A3F1DF
:103AF0000B03B3F120020CDA0C3208DD02F1140CD6
:103B0000C2F10C0201FA0CF021FA02F10CE002F110
:103B10001402D8BFC2F1200C01FA02F120FA0CFC09
:103B2000DCBF41EA0C019040E41AA2BF01EB045152
:103B3000294330BD6FEA04041F3C1CDA0C340EDC50
:103B400004F11404C4F1200220FA04F001FA02F393
:103B500040EA030021FA04F345EA030130BDC4F151
:103B60000C04C4F1200220FA02F001FA04F340EA46
:103B70000300294630BD21FA04F0294630BD94F0F7
:103B8000000F83F4801306BF81F480110134013DDE
:103B90004EE77FEA645C18BF7FEA655C29D094EA4F
:103BA000050F08BF90EA020F05D054EA000C04BFCD
:103BB0001946104630BD91EA030F1EBF00210020B8
:103BC00030BD5FEA545C05D14000494128BF41F057
:103BD000004130BD14F580043CBF01F5801130BDBB
:103BE00001F0004545F0FE4141F470014FF0000046
:103BF00030BD7FEA645C1ABF194610467FEA655CF7
:103C00001CBF0B46024650EA013406BF52EA033598
:103C100091EA030F41F4002130BD00BF90F0000F86
:103C200004BF0021704730B54FF4806404F13204C2
:103C30004FF000054FF0000150E700BF90F0000F7B
:103C400004BF0021704730B54FF4806404F13204A2
:103C500010F0004548BF40424FF000013EE700BF72
:103C600042004FEAE2014FEA31014FEA02701FBF02
:103C700012F07F4393F07F4F81F06051704792F0D4
:103C8000000F14BF93F07F4F704730B54FF460744E
:103C900001F0004521F0004120E700BF50EA010299
:103CA00008BF704730B54FF000050AE050EA010246
:103CB00008BF704730B511F0004502D5404261EBB6
:103CC00041014FF4806404F132045FEA915C3FF4F7
:103CD000DCAE4FF003025FEADC0C18BF03325FEA90
:103CE000DC0C18BF033202EBDC02C2F1200300FA45
:103CF00003FC20FA02F001FA03FE40EA0E0021FA6A
:103D000002F11444C1E600BF70B54FF0FF0C4CF453
:103D1000E06C1CEA11541DBF1CEA135594EA0C0F09
:103D200095EA0C0F00F0DEF82C4481EA030621EA44
:103D30004C5123EA4C5350EA013518BF52EA03357F
:103D400041F4801143F4801338D0A0FB02CE4FF031
:103D50000005E1FB02E506F00042E0FB03E54FF061
:103D60000006E1FB03569CF0000F18BF4EF0010E59
:103D7000A4F1FF04B6F5007F64F5407404D25FEA55
:103D80004E0E6D4146EB060642EAC62141EA555108
:103D90004FEAC52040EA5E504FEACE2EB4F1FD0C4A
:103DA00088BFBCF5E06F1ED8BEF1004F08BF5FEAC8
:103DB000500E50F1000041EB045170BD06F000467A
:103DC00046EA010140EA020081EA0301B4EB5C0427
:103DD000C2BFD4EB0C0541EA045170BD41F480111F
:103DE0004FF0000E013C00F3AB8014F1360FDEBF44
:103DF000002001F0004170BDC4F10004203C35DA20
:103E00000C341BDC04F11404C4F1200500FA05F3A2
:103E100020FA04F001FA05F240EA020001F0004243
:103E200021F0004110EBD37021FA04F642EB0601B9
:103E30005EEA430E08BF20EAD37070BDC4F10C04E3
:103E4000C4F1200500FA04F320FA05F001FA04F2A7
:103E500040EA020001F0004110EBD37041F1000193
:103E60005EEA430E08BF20EAD37070BDC4F120059E
:103E700000FA05F24EEA020E20FA04F301FA05F206
:103E800043EA020321FA04F001F0004121FA04F2AE
:103E900020EA020000EBD3705EEA430E08BF20EA7E
:103EA000D37070BD94F0000F0FD101F000464000B8
:103EB00041EB010111F4801F08BF013CF7D041EA3A
:103EC000060195F0000F18BF704703F0004652003E
:103ED00043EB030313F4801F08BF013DF7D043EA0F
:103EE0000603704794EA0C0F0CEA135518BF95EAC5
:103EF0000C0F0CD050EA410618BF52EA4306D1D14C
:103F000081EA030101F000414FF0000070BD50EA6A
:103F1000410606BF1046194652EA430619D094EAF4
:103F20000C0F02D150EA013613D195EA0C0F05D1DE
:103F300052EA03361CBF104619460AD181EA030132
:103F400001F0004141F0FE4141F470014FF00000EA
:103F500070BD41F0FE4141F4780170BD70B54FF085
:103F6000FF0C4CF4E06C1CEA11541DBF1CEA135505
:103F700094EA0C0F95EA0C0F00F0A7F8A4EB0504E7
:103F800081EA030E52EA03354FEA013100F08880DE
:103F90004FEA03334FF0805545EA131343EA1263A7
:103FA0004FEA022245EA111545EA10654FEA00265C
:103FB0000EF000419D4208BF964244F1FD0404F515
:103FC000407402D25B084FEA3202B61A65EB030571
:103FD0005B084FEA32024FF480104FF4002CB6EB2E
:103FE000020E75EB030E22BFB61A754640EA0C00AE
:103FF0005B084FEA3202B6EB020E75EB030E22BFEE
:10400000B61A754640EA5C005B084FEA3202B6EB2E
:10401000020E75EB030E22BFB61A754640EA9C00ED
:104020005B084FEA3202B6EB020E75EB030E22BFBD
:10403000B61A754640EADC0055EA060E18D04FEA7B
:10404000051545EA16754FEA06164FEAC30343EA1B
:1040500052734FEAC2025FEA1C1CC0D111F4801FE8
:104060000BD141EA00014FF000004FF0004CB6E7E1
:1040700011F4801F04BF01430020B4F1FD0C88BF80
:10408000BCF5E06F3FF6AFAEB5EB030C04BFB6EB8B
:10409000020C5FEA500C50F1000041EB045170BD7E
:1040A0000EF0004E4EEA113114EB5C04C2BFD4EBAB
:1040B0000C0541EA045170BD41F480114FF0000E2F
:1040C000013C90E645EA060E8DE60CEA135594EAAB
:1040D0000C0F08BF95EA0C0F3FF43BAF94EA0C0FAE
:1040E0000AD150EA01347FF434AF95EA0C0F7FF423
:1040F00025AF104619462CE795EA0C0F06D152EA77
:1041000003353FF4FDAE1046194622E750EA41065A
:1041100018BF52EA43067FF4C5AE50EA41047FF46B
:104120000DAF52EA43057FF4EBAE12E74A0011D21D
:1041300012F5001211D20DD56FF47873B3EB625201
:104140000ED44FEAC12343F0004343EA505323FA0D
:1041500002F070474FF00000704750EA013002D182
:104160004FF0FF3070474FF000007047844641EA3F
:10417000000313F0030349D1403A23D30B680360D3
:104180004B6843608B688360CB68C3600B690361D5
:104190004B6943618B698361CB69C3610B6A0362BD
:1041A0004B6A43628B6A8362CB6AC3620B6B0363A5
:1041B0004B6B43638B6B8363CB6BC363403040318A
:1041C000403ADBD230320BD30B6803604B6843605C
:1041D0008B688360CB68C36010301031103AF3D223
:1041E0000C3205D351F8043B40F8043B043AF9D2B1
:1041F000043208D0D2071CBF11F8013B00F8013B84
:1042000001D30B8803806046704700BF082A13D390
:104210008B07B1D010F00303AED0C3F10403D21A60
:10422000DB071CBF11F8013B00F8013BA4D331F8B8
:10423000023B20F8023B9FE7043AD9D3013A11F838
:10424000013B00F8013BF9D20B7803704B784370C7
:104250008B7883706046704780EA010C1CF0030F76
:1042600037D110F0030C20F0030021F0030150F8C7
:10427000042B08BF51F8043B0ED08CF0030C6FF0F8
:104280007F434FEACC0C23FA0CFC51F8043B42EA82
:104290000C0243EA0C0300BFA2F1013C9A4201BFA9
:1042A0002CEA020C1CF0803F50F8042B51F8043B20
:1042B000F2D04FEA02604FEA1222012828BFB0EB89
:1042C000036F08BF1B0AF4D003F0FF03000EC01AEF
:1042D000704710F0030F0AD010F8012B11F8013BC2
:1042E000012A28BF9A42F4D0A2EB030070474DF890
:1042F000045D50F8042B01F0030521F0030151F88F
:10430000043B022D26D04DD822F07F45B5EB132F6C
:10431000A2F1013C2CEA020C0DD11CF0803C08BF3C
:1043200051F8043B0AD185EA0205B5EB036F0CD1C5
:1043300050F8042BE8E74FEA13235BE03CF07F4C96
:1043400054D10B784FEA126554E04FEA126503F03E
:10435000FF034FE04FEA0245A2F1013C4FEA154549
:104360002CEA020CB5EB134F18D11CF0803C08BFAF
:1043700051F8043B07D185EA0205B5EB034F09D19B
:1043800050F8042BE6E75FEA0C4C2FD10B884FEA7C
:1043900012452FE04FEA03434FEA12454FEA134319
:1043A00028E000BF02F0FF05B5EB136FA2F1013C5E
:1043B0002CEA020C0DD11CF0803C08BF51F8043BE4
:1043C0000AD185EA0205B5EB032F0AD150F8042B78
:1043D000E8E74FEA13630DE012F0FF0F06D051F843
:1043E000043B4FEA122523F07F4303E04FF0000027
:1043F00020BC704705F0FF0203F0FF00012828BF32
:10440000904204BF2D0A1B0AF4D0A2EB000020BC8E
:10441000704700BF4FF0FF3C06E000BF4FF0010CBB
:1044200002E000BF4FF0010C4DF804CD4FEA410C03
:104430007FEA6C5C4FEA430C18BF7FEA6C5C1BD0D0
:1044400001B050EA410C0CBF52EA430C91EA030F51
:1044500002BF90EA020F0020704710F1000F91EAAE
:10446000030F58BF994208BF90422CBFD8176FEA7C
:10447000E37040F0010070474FEA410C7FEA6C5C4A
:1044800002D150EA013C07D14FEA430C7FEA6C5C51
:10449000D6D152EA033CD3D05DF8040B704700BF7D
:1044A0008446104662468C461946634600E000BFCB
:1044B00001B5FFF7B7FF002848BF10F1000F01BD9D
:1044C0004DF808EDFFF7F4FF0CBF012000205DF868
:1044D00008FB00BF4DF808EDFFF7EAFF34BF0120ED
:1044E00000205DF808FB00BF4DF808EDFFF7E0FF86
:1044F00094BF012000205DF808FB00BF4DF808EDD7
:10450000FFF7CEFF94BF012000205DF808FB00BF3D
:104510004DF808EDFFF7C4FF34BF012000205DF81F
:1045200008FB00BF4FEA410212F5001215D211D567
:104530006FF47873B3EB625212D94FEAC12343F0A0
:10454000004343EA505311F0004F23FA02F018BF22
:10455000404270474FF00000704750EA013005D1EB
:1045600011F0004008BF6FF0004070474FF00000AE
:10457000704700BF53B94AB9002908BF00281CBFC3
:104580004FF0FF314FF0FF3000F03CB882B0EC4606
:104590002DE9005000F01EF8DDF804E002B00CBC7C
:1045A000704700BF2DE9F041069C904606460F4635
:1045B0001D4600F029F808FB01FCA8FB002300FBC6
:1045C00005C5B21A2B4467EB03038646C4E90023F2
:1045D000BDE8F0812DE9F843089E174680468946DC
:1045E0001D4600F067F900FB05F3A0FB074507FB3C
:1045F0000137B8EB04043D4469EB0505C6E9004505
:10460000BDE8F883704700BF00292DE9F043C0F2F0
:10461000A8800026002BC0F29E8081468E469046E0
:104620009C46174604460D46002B3DD18A4259D977
:10463000B2FA82F33BB1C3F120029D4020FA02F2AC
:104640009F4015439C40390CB5FBF1F01FFA87FEE3
:1046500001FB10550EFB00F3220C42EA0545AB426C
:1046600009D9ED1900F1FF3280F00B81AB4240F225
:10467000088102383D44ED1AB5FBF1F301FB1355F7
:104680000EFB03FEA4B244EA0545AE4508D9ED1978
:1046900003F1FF3280F0F780AE4540F2F480023B38
:1046A00043EA0043002203E08B420FD90022134665
:1046B000341C18BF012460424FF0000565EB450132
:1046C0005840514000196941BDE8F083B3FA83F2C4
:1046D000002A40F089808B4202D3804500F2E280BC
:1046E0000123E5E712B90123B3FBF2F7B7FA87F824
:1046F000B8F1000F3BD1ED1B4FEA174C1FFA87FEB4
:104700000122B5FBFCF00CFB10550EFB00F3210C55
:1047100041EA0545AB4207D9ED1900F1FF3102D25C
:10472000AB4200F2C3800846ED1AB5FBFCF30CFB6C
:1047300013550EFB03FEA4B244EA0545AE4507D966
:10474000ED1903F1FF3102D2AE4500F2AD800B4608
:1047500043EA0043ACE752426FEA060663EB4303C9
:104760005BE7404261EB41014FF0FF3652E707FA49
:1047700008F7C8F1200225FA02F34FEA174CB3FB01
:10478000FCF11FFA87FE0CFB113324FA02F205FA42
:1047900008F50EFB01F92A43100C40EA0343994542
:1047A00004FA08F407D9DB1901F1FF3078D29945F2
:1047B00076D902393B44C9EB0303B3FBFCF00CFB95
:1047C00010330EFB00F592B242EA03439D4207D933
:1047D000DB1900F1FF325FD29D425DD902383B44C4
:1047E0005D1B40EA01428CE7C2F1200328FA03F185
:1047F0000CFA02FC41EA0C0C4FEA1C402EFA03F1C1
:10480000B1FBF0F51FFA8CF700FB151129FA03F341
:104810000EFA02FE07FB05F943EA0E0E4FEA1E43AD
:1048200043EA0141894508FA02F808D911EB0C0165
:1048300005F1FF3332D2894530D9023D6144C9EBDD
:104840000101B1FBF0F300FB131107FB03F71FFAA3
:104850008EFE4EEA014E774508D91EEB0C0E03F191
:10486000FF3117D2774515D9023BE64443EA0543A9
:10487000A3FB0889C7EB0E0ECE4509D305D0002255
:1048800016E71046F7E613460AE794404445F6D289
:10489000013BF4E70B46E9E71046A1E71D46CEE7EA
:1048A000014688E7134603E7023B51E702383D44DF
:1048B0003AE700BF2DE9F043002B44D18A42154668
:1048C00004464FD9B2FA82F70E464FB1C7F1200322
:1048D000B94020FA03F602FA07F50E4300FA07F48E
:1048E0002F0CB6FBF7F01FFA85FE07FB10620EFBDC
:1048F00000F1260C46EA0243994209D95B1900F1FE
:10490000FF3280F0EE80994240F2EB8002382B4477
:10491000591AB1FBF7F307FB13110EFB03FEA4B208
:1049200044EA01418E4508D9491903F1FF3280F06C
:10493000DA808E4540F2D780023B43EA00400026F1
:104940003146BDE8F0838B4247D8B3FA83F6002E98
:1049500048D18B4202D3824200F2CF8001203146FF
:10496000BDE8F08312B90125B5FBF2F5B5FA85FC77
:10497000BCF1000F78D1491B2F0C1FFA85FE0126D0
:10498000B1FBF7F007FB10110EFB00F2230C43EA1A
:1049900001418A4207D9491900F1FF3302D28A4204
:1049A00000F2BC801846891AB1FBF7F307FB13111C
:1049B0000EFB03FEA4B244EA0142964508D95219FF
:1049C00003F1FF3180F09180964540F28E80023BEA
:1049D00043EA00403146BDE8F083002630463146C8
:1049E000BDE8F083C6F1200422FA04F5B3402B435E
:1049F00021FA04F74FEA1348B7FBF8FC1FFA83F9D2
:104A000008FB1C7720FA04FE01FA06F509FB0CF4FA
:104A10004EEA05054FEA154E4EEA0747BC4202FA38
:104A200006F204D9FF180CF1FF3168D38C463F1B06
:104A3000B7FBF8F408FB147709FB04F9ADB245EABB
:104A40000741894504D9C91804F1FF355DD32C46C7
:104A500044EA0C44A4FB0223C9EB0101994249D367
:104A600045D0204600266BE7CCF1200405FA0CF572
:104A700021FA04F32A0CB3FBF2F61FFA85FE02FBBF
:104A8000163820FA04F701FA0CF10EFB06F90F4371
:104A90003C0C44EA0843994500FA0CF407D95B1929
:104AA00006F1FF3138D2994536D9023E2B44C9EB85
:104AB0000303B3FBF2F002FB10330EFB00F1BFB2B5
:104AC00047EA0343994207D95B1900F1FF3721D226
:104AD00099421FD902382B441746591A40EA064614
:104AE0004EE7104614E7134627E70B4670E7B04041
:104AF0009042B6D2601E002622E7304620E7BC4234
:104B000094D9ACF1020C1F4491E789459FD9023C2E
:104B100019449DE73846DFE70E46C8E702382944C6
:104B200041E700BF07B50024FBF74AFDFBF7DCFDBA
:104B3000FBF7BCFD1020FBF77FFF124978222346CC
:104B4000009401941048FCF7F9F9104978222346A3
:104B5000009401940E48FCF7F1F901238DE8180048
:104B60000C49782223460C48FCF7E8F90B49AA22A5
:104B70002346009401940A48FCF7E0F9FCF7EEFBA9
:104B8000FEE700BF299500084D0A00081C950008A3
:104B9000830A000823950008450B00082D9500089E
:104BA000A50B000870B4840746D0541E002A41D0DB
:104BB000CDB2034602E0621EE4B3144603F8015B83
:104BC0009A07F8D1032C2ED9CDB245EA05250F2C32
:104BD00045EA054519D9264603F11002103E0F2E6D
:104BE00042F8105C42F80C5C42F8085C42F8045C45
:104BF00002F11002F2D8A4F1100222F00F0204F028
:104C00000F041032032C13440DD91E462246043AD9
:104C1000032A46F8045BFAD8221F22F0030204326A
:104C2000134404F003042CB1C9B21C4403F8011B63
:104C3000A342FBD170BC704714460346C2E700BFD5
:104C400038B50C460968054609B1FFF7F9FF284653
:104C50002146BDE8384002F06FBB00BF204B1B6807
:104C600098423CD0C36C70B505468BB1002699596B
:104C700039B10C68284602F05FFB2146002CF8D1C0
:104C8000EB6C0436802EF2D11946284602F054FB14
:104C9000296C11B1284602F04FFBD5F8481151B1EB
:104CA00005F5A676B14206D00C68284602F044FB12
:104CB000A6422146F8D1696D11B1284602F03CFBAD
:104CC000AB6B03B970BDEB6B28469847D5F8E01283
:104CD0000029F7D02846BDE87040FFF7B1BF704704
:104CE000600400200CB4F0B50E464FF6FF7E9DB078
:104CF00022AC54F8042B6FF0004523464FF40277A2
:104D000002A9029606960194ADF816E0ADF814706B
:104D10000495079500F05CF8029B00221A701DB004
:104D2000BDE8F04002B070470EB4F0B506464FF64D
:104D3000FF7E9CB021AC54F8042B0D4923466FF044
:104D4000004508684FF4027702A90296069601947E
:104D5000ADF816E0ADF814700495079500F038F83A
:104D6000029B00221A701CB0BDE8F04003B07047EF
:104D70006004002020F0030110F00300C0F10000E7
:104D800051F8043B00F1040C4FEACC0C6FF0000228
:104D90001CBF22FA0CF213434FF0010C4CEA0C2C0E
:104DA0004CEA0C4CA3EB0C0222EA030212EACC12EE
:104DB00004BF51F8043B0430F4D0C2F1000102EA10
:104DC0000102B2FA82F2C2F11F0200EBD200704778
:104DD0002DE9F04FC1B089460A920E93089002F077
:104DE000B5FB036818461793FFF7C4FFB9F80C30FA
:104DF00018901C0604D5D9F81030002B01F0C280A1
:104E000030AF3C464E4600231393169319930B93F1
:104E1000259324932397149315930A9D2B78002BA5
:104E200000F0A980252B02D1A5E0252B03D015F891
:104E3000013F002BF9D10A9BEB1A73B1249A2599F3
:104E400001320A981944072A84E80900259124921E
:104E500072DC08340B9A1A440B922B78002B00F06A
:104E6000E28700231A46691C6D788DF86F300C9329
:104E700007934FF0FF3A4B1CA5F12001582900F28F
:104E8000EA83DFE811F06D02E803E803D102E803EA
:104E9000E803E803E803E803E803BC020D02E803C3
:104EA000F4011102E803D8027B027B027B027B0241
:104EB0007B027B027B027B027B02E803E803E803C0
:104EC000E803E803E803E803E803E803E8038A02E9
:104ED000DF02E803DF02E803E803E803E803CB03AB
:104EE000E803E8032F03E803E803E803E803E80323
:104EF0004D03E803E8036703E803E803E803E80376
:104F0000E803E803E803E803E803E80382032B026D
:104F1000DF02DF02DF02CA022B02E803E803B2026B
:104F2000E803D203FB0119037402E803A303E803B7
:104F30007A00E803E80347020898314623AA07935A
:104F400003F092FA50B93C46079B83E70898314634
:104F500023AA03F089FA002800F08581B146B9F848
:104F60000C3013F0400F0B9B18BF4FF0FF33184667
:104F700041B0BDE8F08F0A9D6FE70A93079B980642
:104F800040F1D7820E9B03F1070929F0070303F1D3
:104F90000802D3E900890E92012300229446CDF83D
:104FA00044A08DF86F20BAF1000F03DB079A22F0BE
:104FB0008002079258EA090240F06F83BAF1000FAD
:104FC00000F07484012B00F07283022B00F0C28485
:104FD00039464FEAD80242EA49724FEAD90008F04E
:104FE000070381469046303358EA090201F8013D33
:104FF000EFD1079A1091D20700F17F857B1A0D93AC
:105000000D9A53469245B8BF134609930023129355
:10501000BCF1000F02D0099B01330993079B13F0E9
:1050200002030F9302D0099B02330993079B13F0ED
:10503000840940F02F830C9B099AC2EB0308B8F156
:10504000000F40F32783B8F1100F2599249ADFF859
:1050500070A529DD53464FF0100BC246A8461D46E9
:1050600006E0AAF1100ABAF1100F04F1080417DDE6
:1050700001321031072A2591249284E82008F0DDBE
:105080000898314623AA03F0EFF900287FF466AFB1
:10509000AAF1100ABAF1100F3C462599249AE7DCD0
:1050A0002B464546D0469A46013208EB010B072AAB
:1050B000CDF894B02492C4F800A0C4F8048000F3A2
:1050C000DE829DF86FC00834BCF1000F0FD0249B26
:1050D0000BF1010B01330DF16F010122072BCDF80C
:1050E00094B0249384E8060000F3FD8308340F9BFA
:1050F00073B1249B0BF1020B01331CA90222072B75
:10510000CDF894B0249384E8060000F3F9830834C2
:10511000B9F1800F00F03483119B0D9AC2EB030AA2
:10512000BAF1000F3CDDBAF1100F249ADFF8949425
:105130002BDD49465B46A9464FF01008DDF820B04C
:105140000D4606E0AAF1100ABAF1100F04F10804A6
:1051500017DD01321033072A2593249284E82001B9
:10516000F0DD5846314623AA03F07EF900287FF48B
:10517000F5AEAAF1100ABAF1100F3C46259B249A0D
:10518000E7DC9B462B464D4699460132D344072A1D
:10519000CDF894B0249284E8000600F39883083494
:1051A000079BD90500F18F82249B0D990133109A3A
:1051B0008B44072BCDF894B022606160249300F3F8
:1051C000B8830834079B5A0741D50C9B099A9D1A4E
:1051D000002D3CDD102D249BDFF8E4A323DD4FF0F0
:1051E00010085A46DDF8209004E0103D102D04F11F
:1051F000080417DD01331032072B25922493C4F8DD
:1052000000A0C4F80480F0DD4846314623AA03F02C
:105210002BF900287FF4A2AE103D102D3C46259AB4
:10522000249BE7DC93460133AB44072BCDF894B0C5
:105230002493C4F800A0656009DD0898314623AACC
:1052400003F012F900287FF489AEDDF894B00B9BCF
:10525000099A0C998A42ACBF9B185B180B93BBF15F
:10526000000F7FF473AE002324933C46D5E5194626
:10527000079840F0040007901D78FCE50A93079B0F
:1052800013F0200300F038810E9B03F1070929F089
:10529000070303F10802D3E900890E9200237CE69C
:1052A0001D7819462B22E6E51D78591C2A2D00F0A1
:1052B000E587A5F1300009280B464FF0000A3FF6BC
:1052C000DBAD13F8015B0AEB8A0A00EB4A0AA5F191
:1052D00030000928F5D94AEAEA7ACDE50A93079B16
:1052E0008DF86F20980662D50E9B03F1070929F00F
:1052F0000709D9E9002309F10801904699460E9162
:10530000002A73F1000364DB9DF86FC0CDF844A060
:10531000012348E60A93A74B8DF86F201693079B4D
:105320009B0640F120810E9B03F1070929F007033A
:1053300003F108020E92D3E90089079BD90740F1D7
:10534000228158EA090300F01E81079A302342F0B7
:1053500002028DF870308DF87150079202231CE61E
:10536000002A40F0E5841D781946202283E507993C
:1053700041F0200107911D7819467CE5A5F1300028
:10538000002113F8015B01EB810100EB4101A5F164
:1053900030000928F5D90C916EE50A93079B8DF82A
:1053A0006F2043F010030793079B98069CD4079B3C
:1053B000D90640F1C1840E9A13461B6804320E923E
:1053C0004FEAE3791A4698464B46002A73F10003E8
:1053D0009ADA4FF02D0CD8F1000869EB49098DF8E5
:1053E0006FC0CDF844A00123DDE51D7807996C2D31
:1053F00000F0258541F01001079119463BE50E9D0F
:10540000296808460C912946002801F10401C0F2E0
:105410001D850E911D7819462DE5079941F0400133
:1054200007911D78194626E5079941F0010107917A
:105430001D7819461FE5079941F0800107911D78F5
:10544000194618E50A93079B8DF86F2013F0080F93
:105450000E9BD34603F1070900F0378429F00703B8
:1054600003F108020E921A685B681492159315995D
:10547000149802F0BBFF01281599149840F00B8492
:1054800000220023FFF726F8002840F039869DF817
:105490006FC0079B484A23F0800307931346DFF849
:1054A00028E10321472DD8BF7346002009911190B0
:1054B00010930D911290ABE50E9907980A93302343
:1054C0000A688DF870303B4B782540F002000431BB
:1054D000169307900E9190464FF000098DF8715089
:1054E00002235AE50A93079B43F010030793079B97
:1054F00013F020037FF4C8AE079A12F0100240F0B8
:105500000A83079B13F0400300F005830E991346AE
:105510000A460432B1F800804FF000090E923CE5D3
:105520000A93079B43F010030793079B98063FF5E8
:1055300029AD079BD90600F1F782079B5A0640F177
:10554000F3820E9A4FF00009B2F800800432012372
:105550000E9222E50A93194B8DF86F201693079B44
:105560009B063FF5E0AE079BD80640F1BB830E9A41
:1055700013461B6804329846079B0E92D9074FF0DA
:1055800000093FF5DEAE022307E50E980A93026894
:1055900000238DF89820024601219C4604328DF8A4
:1055A0006F301193129326AB09910E920D911093C7
:1055B00034E500BF949500087495000880950008B4
:1055C0006095000850950008709500080E9A0A939F
:1055D00013684FF0000B10938DF86FB002F10409BF
:1055E000002B00F05885BAF1000F1098C0F2EA8441
:1055F0005946524602F040FA002800F08985109B77
:10560000CDF844B0C31A0D93CDF8389023EAE37374
:105610000993CDF848B09DF86FC0F9E4079941F0BF
:10562000080107911D78194625E40A93079B8DF818
:105630006F209A0640F165830E9A134604330E9349
:105640000B9B11684FEAE3791A4698464B46C1E92D
:105650000023FFF7E2BB0A938DF86F20002D00F0C6
:10566000E283002301229C468DF86F301193129340
:1056700026AB09928DF898500D921093CEE40898BD
:10568000314623AA02F0F0FE00287FF467AC3C46C6
:105690009DF86FC0DDF894B016E5012B7FF495AC52
:1056A000B9F1000F08BFB8F10A0F80F006820DF5BE
:1056B000807B08F130080BF8418DCBEB07030D938D
:1056C000CDF840B09CE4652D40F3A0801498159966
:1056D00000220023FEF7F4FE002800F05481249BF2
:1056E000C14901330BF1010B0122072BCDF894B016
:1056F000249384E8060000F33E8308341D9B139A2C
:10570000934203DB079BDA077FF55CAD249B189976
:105710000133179A8B44072BCDF894B02260616057
:10572000249300F31A840834139B5D1E002D7FF729
:1057300049AD102D249BDFF8B49240F3EF804FF079
:1057400010085A46DDF820A004E00834103D102D62
:1057500040F3E38001331032072B25922493C4F8E1
:105760000090C4F80480F0DD5046314623AA02F0D0
:105770007BFE00287FF4F2AB3C46259A249BE5E7AC
:105780000C9B099AC2EB030ABAF1000F7FF7C4AC75
:10579000BAF1100F249ADFF854922BDD49465B468C
:1057A000A9464FF01008DDF820B00D4606E0AAF13A
:1057B000100ABAF1100F04F1080417DD013210339A
:1057C000072A2593249284E82001F0DD58463146CB
:1057D00023AA02F049FE00287FF4C0ABAAF1100A08
:1057E000BAF1100F3C46259B249AE7DC9B462B46DA
:1057F0004D4699460132D344072ACDF894B02492FD
:1058000084E8000600F33A82083485E4139B249D63
:10581000012B40F3FC81013510990BF101030122AA
:10582000072D259321602495626000F30E820834D1
:105830001899013503EB010B179B072DCDF894B098
:1058400024952360616000F30C82083400231498CF
:1058500015990022FEF734FE139B002840F0E380E8
:10586000109A013B013501329B44072D226024959B
:10587000CDF894B0636000F313810834199A0135B0
:1058800093441FAB072DCDF894B02495626023603C
:105890007FF797AC0898314623AA02F0E5FD00286F
:1058A0007FF45CAB3C46DDF894B08BE4002B4CD12C
:1058B000079BD80749D50DF5807B30230BF8413D78
:1058C000CBEB07030D93CDF840B0FFF799BB0898D9
:1058D000314623AA02F0C8FD00287FF43FAB3C46C6
:1058E000DDF894B05CE40898314623AA02F0BCFDD0
:1058F00000287FF433AB3C46DDF894B0FFF7F7BBEC
:105900000898314623AA02F0AFFD00287FF426ABA9
:105910003C46DDF894B0FFF7FBBB93460133AB4444
:10592000072BCDF894B02493C4F8009065607FF7FE
:1059300048AC0898314623AA02F096FD00287FF46F
:105940000DABDDF894B03C463CE4CDF834A01097A4
:10595000FFF756BBBB4616984FEA181343EA097384
:105960004FEA191108F00F0289469846835C0BF83C
:10597000013D58EA0903EFD15B46CDF840B0FB1A70
:105980000D93FFF73DBB1D9D002D40F30082139A40
:10599000129913468A42A8BF0B461D461099002D46
:1059A00001EB020A0CDD0A46249BAB440133072BB2
:1059B000CDF894B084E82400249300F3488308349D
:1059C000129B002DA8BF5B1B002B1D4640F3C1801E
:1059D000102D249BDFF8149040F3C0815A464FF0FD
:1059E0001008DDF820B008E0B095000850950008D8
:1059F0000834103D102D40F3B08101331032072BD5
:105A000025922493C4F80090C4F80480F0DD584631
:105A1000314623AA02F028FD00287FF49FAA3C46C5
:105A2000259A249BE5E703F1FF38B8F1000F7FF7D3
:105A300025AFB8F1100FDFF8489525DD5B464FF034
:105A4000100ADDF820B006E0A8F11008B8F1100F38
:105A500004F1080417DD01351033072D2593249533
:105A600084E80006F0DD5846314623AA02F0FCFC2B
:105A700000287FF473AAA8F11008B8F1100F3C4673
:105A8000259B249DE7DC9B460135C344072DCDF8BB
:105A900094B02495C4F80090C4F804807FF7EDAE6C
:105AA0000898314623AA02F0DFFC00287FF456AAAA
:105AB000DDF894B0249D3C46E0E6BB46CDF824C01A
:105AC000404649460A220023FEF754FD3032404644
:105AD00049460BF8012D00230A22FEF74BFD8046B4
